:020000040800F2
:1040000028360020F9B80008ADB80008AFB800089D
:10401000B1B80008B3B80008B5B800080000000047
:10402000000000000000000000000000B7B8000819
:10403000B9B8000800000000BBB80008BDB800080F
:1040400039B900083DB9000841B9000845B9000870
:1040500049B900084DB9000851B9000855B9000820
:1040600059B900085DB9000861B9000865B90008D0
:1040700069B900086DB9000871B9000875B9000880
:1040800079B900087DB9000881B9000885B9000830
:10409000BFB800088DB9000891B9000895B90008AB
:1040A00099B900089DB90008A1B90008A5B9000890
:1040B000C3B80008C7B80008B1B90008B5B900080E
:1040C000B9B90008BDB90008C1B90008C5B90008F0
:1040D000C9B90008CDB90008D1B90008D5B90008A0
:1040E000D9B90008DDB90008E1B90008E5B9000850
:1040F000E9B90008EDB90008F1B90008F5B9000800
:10410000F9B90008FDB9000801BA000805BA0008AD
:1041100009BA00080DBA000811BA000815BA00085B
:1041200019BA00081DBA000821BA000825BA00080B
:10413000DFF8940E406B7047DFF88C1E48637047C1
:10414000DFF8841E48707047DFF87C0E40787047B7
:1041500038B901EBC100052190FBF1F000F5A0702A
:1041600006E001EB8100A0F5C860092190FBF1F0A9
:1041700000B2704710B5DFF8544E00206060A061B7
:1041800003F052F808B9082004E0042806DB02F026
:10419000ACFA0620BDE8104003F01CBA012003F081
:1041A00019FADFF82C0E006A606110BD30B585B0D9
:1041B00000240A25DFF81C0E03F020FD04196D1EF3
:1041C000F8D10A20B4FBF0F0642148439021B0FB01
:1041D000F1F24CA100F047F8002200A9012001F003
:1041E00087F805B030BD30B583B004460D460621D2
:1041F00000A803F011FD2A4600F034F805F109018A
:1042000000A8DFF8C42D52786AB9642D07DA0A2DA8
:1042100003DA002D05D5002901D443210CE0432108
:1042200013E043210EE0642D09DA0A2D03DA002D94
:1042300007D5002903D445218170202105E04521BF
:1042400003E04521417020218170C17020208DF84C
:10425000040000A9204601F011F8DFF8700D1421C8
:10426000016037BD28A100A803F0FBBC70B582B087
:10427000DFF8C44E60780FF2940120B9009110234A
:10428000602200210BE0012802D16068009002E06A
:10429000022808D10091102360220021002003F0A1
:1042A000D3FD606025E0032823D10025542616E0C5
:1042B0001C200FF2F81100FB051060600E21F01DAC
:1042C00003F0E9FD6068009010230E220021F0B297
:1042D00003F0BAFD6060F61F0A2003F09DFF20780E
:1042E0008642E5DA0E3020706D1C062DDEDB0020E4
:1042F00020706078401CC0B2042808BF00206070A5
:1043000073BD000025665600256400000000000013
:10431000000000000000000000000000000000009D
:10432000000000000000000000000000000000008D
:1043300000000000000000000000008898BFBF9847
:1043400088000000008080808080800000000000E5
:10435000000000000000000000000000000000005D
:10436000000000000000000000000000002060606D
:1043700060606060909090909090909090909090FD
:1043800090909090909090909090909090606060BD
:10439000606060606070F888848282838383838336
:1043A00083828282828383838383838282828282E6
:1043B00086848484848484848484848484848484BB
:1043C00084848282828282828282FE0000000000D7
:1043D00000000000000000000000000000000000DD
:1043E00000000000000000000000000000000000CD
:1043F000000000000000000000000090B0FEFEB0D1
:10440000900000000080808080808000000000001C
:10441000000000000000000000000000000000009C
:1044200000000000000000000000000000206060AC
:10443000606060609090909090909090909090903C
:1044400090909090909090909090909090606060FC
:10445000606060606070F888848282838383838375
:104460008382828282838383838383828282828225
:1044700086848484848484848484848484848484FA
:1044800084848282828282828282FE0000F0F00036
:1044900000F0F0F00000FCF8F0E0C080000F0F002A
:1044A000000F0F0F00003F1F0F0703010000000067
:1044B00000000000000000000000000000000000FC
:1044C00000000000000000000001FFFF01010101E9
:1044D000010181C67E380080FFFF81810101010159
:1044E0000000000000202020E0E00080404020602C
:1044F000C04000808080FFFF81808080000000003D
:10450000000000804040202020404080000000004B
:104510003F7F448484848484844727000000008093
:1045200040402020204040C00000000020C3828680
:1045300084848C8C887830000000008040402020EB
:10454000204040C00000000020C3828684848C8C00
:1045500088783000000000000000008080C06020EB
:1045600010180C86E0E0E0ECFCF2F3F1F0F8ECE47B
:10457000E4E2E30100000000000000000080C04011
:104580002030180CC0C0C0D8F8E4E6E3E1F1D8C888
:10459000C8C4C603FCFCFC00000000C0382625018E
:1045A00001010101010101027F7F7F06090909095B
:1045B000090939484848483010080804FCFC000044
:1045C0000000C0382625010101010101010102029C
:1045D0007F7F060909090909093948484848301008
:1045E0000808040400000000000000008080C06093
:1045F00030180C8600E0E0ECF4F6F6FBF5E8E8E4B1
:10460000E2E2E1000000000000000000000080C0C5
:104610006030180C00C0C0D8E8ECECF6EBD1D1C883
:10462000C4C4C201FEFEFE80404060585402020233
:10463000020202843F3F3F0001010101010705051D
:1046400006020100FEFE8040406058540202020251
:10465000020284843F3F00010101010107050506B4
:1046600002010000F8B50C468578303DEDB20A2D08
:1046700038BF2A46C578303DEDB20A2D38BF2B46EB
:1046800000783038C0B20A2838BF01460026DFF86B
:104690003C5C18200FF2700700FB016C1CF807C08F
:1046A00006EB050E8EF860C000FB026C1CF807C01C
:1046B0008EF890C000FB036C1CF807C08EF8A8C0F1
:1046C000761C182EE8DB102744B902230C2208219F
:1046D000284600F096FC05F1D80000E028460026A8
:1046E00000F000FE01F0E0FC761C082EF8DB7F1ED7
:1046F000EAD13CB900F08EFA03F022FCBDE8F140AB
:1047000002F05BBFF1BD000000E010080810E000FF
:1047100000000000000F102020100F00000000001B
:10472000001010F800000000000000000020203FF2
:1047300020200000000000000070080808887000B9
:10474000000000000030282422213000000000007A
:104750000030088888483000000000000018202041
:1047600020110E00000000000000C02010F8000022
:104770000000000000070424243F24000000000083
:1047800000F80888880808000000000000192120AF
:1047900020110E000000000000E0108888180000C2
:1047A00000000000000F112020110E00000000008A
:1047B00000380808C8380800000000000000003F6A
:1047C00000000000000000000070880808887000E9
:1047D00000000000001C222121221C00000000001B
:1047E00000E010080810E000000000000000312286
:1047F00022110F0000000000000000000000000077
:104800000000000000303000000000000000000048
:1048100010B582B00FF21000002400F0FFF9641C04
:10482000062CFAD313BD0000000000C0F0380804C5
:1048300004040408081C00000000000F1F30604042
:104840004040402030080000000000C0F0180C0478
:1048500004040C18F0C00000000000071F30604086
:10486000404060301F07000000000004FC1C38E0DE
:10487000C0000004FC040000000000407F40000075
:1048800001071E387F00000000000004FCFC848447
:104890008484E4040C100000000000407F7F40008E
:1048A00000000300000000000000000000040404F9
:1048B000FCFC040404000000000000000040404034
:1048C0007F7F404040000000000000C0F038080436
:1048D0000404040C1C000000000000071F386040A6
:1048E0004042423E3E0202002DE9F04184B00446BF
:1048F0008846062101A803F08FF924A622463146F6
:1049000001F0F0FEDFF8C07601AD787828B9642CAC
:10491000A8BF432008DA432004E0642CA8BF452048
:1049200002DA4520A8702020E87001A9012001F0DA
:104930000FFB7879411C79710FF2540100F088F86F
:10494000292003F081FA7879032804BF00207871C8
:10495000062101A803F060F94246314601F0C2FE8B
:10496000787828B9642CA8BF432008DA432004E0F3
:10497000642CA8BF452002DA4520A8702020E870EA
:1049800001A9382001F0E4FABDE8FF8125640000A8
:1049900000003060C0800000000000000000000047
:1049A0000000180C060301000000000000000000D9
:1049B00000003060C0803060C08000000000000057
:1049C0000000180C0603190C06030100000000008B
:1049D00000003060C0803060C0803060C080000067
:1049E0000000180C0603190C0603190C060301003D
:1049F0000000183060C080000000000000000000CF
:104A000000000C0603010000000000000000000090
:104A10000000183060C0983060C0800000000000C6
:104A200000000C0603010C0603010000000000005A
:104A30000000183060C0983060C0983060C08000BE
:104A400000000C0603010C0603010C060301000024
:104A500001EB40100090102310220021704710B588
:104A600082B0012808BF0FF22C0103D0022808BF32
:104A70000FF2E001009100F03BFA012400F0CEF8C3
:104A8000641C062CFAD300F0C5F8BDE8134002F010
:104A900094BD0000E01864E282010101010182E29C
:104AA0006418E000030C1021274E5850584E27215F
:104AB000100C0300F00C0201010101020F000000C4
:104AC00000000000030C0810101010080600000081
:104AD0000000000000601010909090E000000000C6
:104AE00000000000000E11111010081F1018000027
:104AF0000000000000010101FF00000000000000B4
:104B000000000000001010101F1010100000000026
:104B10000000000000000000000000000000000095
:104B20000000000080808080808080808080000085
:104B30000000000001077980008079070100000073
:104B400000000000000000071C070000000000003B
:104B500000000000E018040212214181814122126C
:104B60000418E000030C102028444241414224284C
:104B7000100C0300F00C0201010101020F00000003
:104B800000000000030C08101010100806000000C0
:104B90000000000000601010909090E00000000005
:104BA00000000000000E11111010081F1018000066
:104BB0000000000000010101FF00000000000000F3
:104BC00000000000001010101F1010100000000066
:104BD00000000000000000000000000000000000D5
:104BE00000000000808080808080808080800000C5
:104BF0000000000000010719E0B00D0301000000F3
:104C00000000000000101817000116181000000026
:104C1000000000004FF47A7003F0FEBA00901023F9
:104C2000102200212001C0B203F00EB970B582B08D
:104C30000FF26C0502F0F4FA022808D00ED3042813
:104C40000AD006D3052808BF0FF2001406E02C4650
:104C500004E00FF2841401E00FF2082405F18C0047
:104C6000009000F045F9DFF86856287880B90226F0
:104C7000142000FB06402838009010230A2200214F
:104C80000A2001F011FA761C092EF1DB012004E064
:104C90005021102003F0FFF80020287073BD0000A1
:104CA00001FF00E11FE000FF010000011E01000103
:104CB0001E010000006010109090E0000000000E47
:104CC000111110081F1800001010F04020101030B3
:104CD000000010101F1010000000000010F0201045
:104CE000101010E00000101F10000000101F100036
:104CF00000001013F30000000000000010101F104F
:104D00001000000010F02010101010E00000101F24
:104D100010000000101F100000E010101010F01024
:104D20000000007D8A8A8A8A91700000000000805D
:104D3000E0F8FE0707FEF8E080000000101C1F1FCF
:104D40001F1F1F12121F1F1F1F1F1C1001FF01001A
:104D5000000000000000101F1010101010180400B8
:104D600000C0201010101020C00000070810101004
:104D70001008070010F00010F01000F01000000301
:104D80001C0300031C030000002020202020202002
:104D900020000000000000000000000001077980F2
:104DA000008079070100000000071C0700000000D8
:104DB00000C0201010101020C000000708101010B4
:104DC0001008070000001010FE1010100000000076
:104DD00000000F1010080000001C222141414182F8
:104DE0000700001E081010101008070000C0A09057
:104DF000909090A0C0000007081010101008040048
:104E000010F02010101010E00000101F1000000023
:104E1000101F100000202020202020202000000053
:104E2000000000000000000001FF21212121F90302
:104E30000400101F1010101010180400001010F0C3
:104E40004020101030000010101F10100000000053
:104E5000001010F04020101030000010101F101033
:104E60000000000001FF4140404041FF0100101FD1
:104E700010000000101F100000001013F3000000CD
:104E80000000000010101F10100000000000E010D3
:104E9000101010F0100000609D8A8A8A8A917000BC
:104EA00001FF2010101010E00000101F1000000083
:104EB000101F1000002020202020202020000000B3
:104EC00000000000000000000107798000807907E1
:104ED0000100000000071C07000000000000101087
:104EE000FE1010100000000000000F10100800005D
:104EF000102310220021084602F0A6BF2DE9F04140
:104F00001318DFF8C883DFF8CC138D785DB901255D
:104F1000CD7000250D7108254D7100250D704D7067
:104F200001258D7028E0CD7825BB0E794F7906EBF1
:104F3000000EAE449EF833E005EB080484F8D8E098
:104F400002EB050EC644F4182C1994F833408EF881
:104F5000D8406D1CEDB2AF42E9D27D1C4D71761E7A
:104F60000E71EDB20B2D05D10A2048710020087199
:104F7000012025E00D7925BB0125CE784F7911E080
:104F800006EB050EC6442C1894F833408EF8D84032
:104F900006EB020EAE44C644EC1894F833408EF88B
:104FA000D8406D1CEDB2BD42EAD3781E4871721C28
:104FB000CA70C0B228B901204871092008710020C8
:104FC000C870BDE8F0810000240500206831002091
:104FD000FC0400200028014010B50021002201231C
:104FE000934003405400042AB9BFC4F10704A3400E
:104FF000E41FE3405918C9B2521C082AEFDB0846E7
:1050000010BD2DE9F44F82B082465FEA0308B14D2E
:105010000AD1287828B900260027012028706E7050
:105020000CE0AE686F6910E0B8F1010F0BD1687841
:1050300030B900260027287001206870AE7004E0A7
:10504000EE68AF6901E02E69EF6900249DF8080061
:10505000484340000090DFF8749208E014F80A001A
:10506000FFF7BAFF04EB090181F8D800641C00982F
:105070008442F3D300229DF80800974903E09DF88D
:10508000083002EB4302009B9A422FD200240AE030
:1050900021F81EA031F81EE04FEA1E2A83F8D8A09E
:1050A0008CF8D8E0641C8442E9D21318E31803EBAF
:1050B000090C02EB040E0EEB090393F8D8A09CF840
:1050C000D8B04BEA0A2A21F81EA0B8F1010F06D188
:1050D000002E14BF2AFA06FA0AFA07FAD8E7002FB8
:1050E0000CBF0AFA06FA2AFA07FAD1E7002408E008
:1050F00004EB090A9AF8D800FFF76EFF8AF8D80087
:10510000641C00988442F3D31FB9102E08D10026E6
:1051100010277F1EB8F1000F04D1AE606F6108E068
:10512000761CF7E7B8F1010F07BFEE60AF612E61A3
:10513000EF61BDE8F78F0000F4310020F8B50446B8
:105140000D46664E1421304602F066FD0FF26C07E4
:1051500024B900230A220121384606E0012C07D198
:1051600001230A22012107F12000FFF74AFF06E090
:10517000022C04D10A2201213846FFF7BFFE009617
:1051800010230A220021562002F05EFE0FF2D40402
:1051900002F01CFA042803D104F10C00009005E091
:1051A000002D06BF07F11400009000941023062282
:1051B0000021502002F048FEF1BD000010188CC6FE
:1051C0006363C68C1810426331180C0C18316342AB
:1051D00000F01E1FF00000FF8080FF0042C68C1808
:1051E0003030188CC64208183163C6C663311808BF
:1051F0008C8CC6C68C8CC6C68C8C3131181831315B
:1052000018183131008C8C8C8C8C8C8C8C8C8C8C08
:105210008C8C8C00003131313131313131313131CF
:105220003131310080C0603098CC66333366CC9821
:105230003060C08088CC6633190C060303060C1955
:105240003366CC88113366CC983060C0C06030982B
:10525000CC6633110103060C193366CCCC663319C6
:105260000C06030100F0FEFFF000007F7F7F7F004F
:10527000FF0FE1E00FFFFF80BFBF80FF38B50C4696
:10528000451EEDB2082D0AD3002508E03638C0B21D
:105290001349FFF7DDFB280100F007FF6D1C2078A4
:1052A00098B114F8010B202808BF0A20F0D02D284F
:1052B00008BF0C20ECD0A0F130010A2938BF3038EB
:1052C000E5D3A0F141010629E0D331BD240200203D
:1052D0002532002014060020302F0020FC02002080
:1052E000206F0008009010230C2200210C20704732
:1052F00038B50C46451E002AEDB20CD1102D28BF42
:1053000000252078B8B100F05FFB0FF22C0100F00F
:1053100060FB6D1CF5E7102D0AD3002508E014F89A
:10532000010B3038C0B20FF2006100F052FB6D1C6F
:1053300020780028F3D131BD0000000000000000FB
:105340000000000000000000000000F80000000065
:10535000000000333000000000100C06100C0600A6
:10536000000000000000000040C07840C07840000D
:10537000043F04043F040400007088FC083000006F
:10538000001820FF211E0000F008F000E0180000C7
:1053900000211C031E211E0000F008887000000080
:1053A0001E2123241927211010160E0000000000D2
:1053B0000000000000000000000000E018040200EF
:1053C000000000071820400000020418E000000060
:1053D0000040201807000000404080F0804040005E
:1053E0000202010F01020200000000F000000000B4
:1053F0000101011F01010100000000000000000088
:1054000080B07000000000000000000000000000FC
:105410000001010101010101000000000000000085
:105420000030300000000000000000008060180420
:10543000006018060100000000E010080810E000FD
:10544000000F102020100F00001010F800000000C6
:105450000020203F2020000000700808088870000D
:10546000003028242221300000300888884830008D
:105470000018202020110E000000C02010F80000AD
:1054800000070424243F240000F808888808080046
:105490000019212020110E0000E01088881800005B
:1054A000000F112020110E0000380808C83808002D
:1054B0000000003F000000000070880808887000AD
:1054C000001C222121221C0000E010080810E0002E
:1054D0000000312222110F00000000C0C0000000B7
:1054E00000000030300000000000008000000000DC
:1054F00000008060000000000000804020100800D4
:10550000000102040810200040404040404040009C
:105510000404040404040400000810204080000077
:105520000020100804020100007048080808F0007C
:105530000000003036010000C030C828E810E0004C
:105540000718272423140B000000C038E0000000D7
:10555000203C23020227382008F888888870000041
:10556000203F202020110E00C03008080808380015
:10557000071820202010080008F808080810E0008C
:10558000203F202020100F0008F88888E80810002D
:10559000203F20202320180008F88888E808100001
:1055A000203F200003000000C03008080838000039
:1055B00007182020221E020008F808000008F8083A
:1055C000203F210101213F20000808F808080000C1
:1055D0000020203F2020000000000808F8080800F4
:1055E000C08080807F00000008F888C0281808006C
:1055F000203F20012638200008F8080000000000A5
:10560000203F20202020300008F8F800F8F808009B
:10561000203F003F003F200008F830C00008F80895
:10562000203F200007183F00E01008080810E000A5
:105630000F10202020100F0008F808080808F000BC
:10564000203F210101010000E01008080810E000DF
:105650000F18242438504F0008F888888888700074
:10566000203F2000030C3020007088080808380014
:105670000038202121221C00180808F8080818000A
:105680000000203F2000000008F808000008F8088B
:10569000001F202020201F000878880000C838083C
:1056A000000007380E010000F80800F80008F800B4
:1056B000033C0700073C030008186880806818084E
:1056C00020302C03032C30200838C800C8380800CC
:1056D0000000203F2000000010080808C83808001B
:1056E0002038262120201800000000FE02020200BF
:1056F0000000007F40404000000C30C0000000006F
:10570000000000010638C00000020202FE00000096
:10571000004040407F00000000000402020204003C
:105720000000000000000000000000000000000079
:105730008080808080808080000202040000000061
:105740000000000000000000000080808080000059
:105750000019242222223F2008F800808000000047
:10576000003F112020110E0000000080808000000A
:10577000000E112020201100000000808088F80019
:10578000000E112020103F2000008080808000004B
:10579000001F222222221300008080F088888818AF
:1057A0000020203F202000000000808080808000BA
:1057B000006B94949493600008F80080808000004F
:1057C000203F210000203F2000809898000000002A
:1057D0000020203F2020000000000080989800005A
:1057E00000C08080807F000008F80000808080007A
:1057F000203F24022D302000000808F8000000009F
:105800000020203F20200000808080808080800059
:10581000203F20003F20003F8080008080800000EB
:10582000203F210000203F20000080808080000079
:10583000001F202020201F008080008080000000AA
:1058400080FFA12020110E000000008080808000D9
:10585000000E112020A0FF808080800080808000CA
:1058600020203F21200001000000808080808000F7
:105870000033242424241900008080E0808000006C
:105880000000001F202000008080000000808000B9
:10589000001F202020103F2080808000008080801A
:1058A00000010E30080601008080008000808080AA
:1058B0000F300C030C300F000080800080808000CF
:1058C0000020312E0E3120008080800000808080FA
:1058D00080818E70180601000080808080808000AA
:1058E0000021302C2221300000C725171010102075
:1058F000000708101010100800000000FF00000052
:1059000000000000FF0000000007F5171010101045
:1059100000003F010101010100060101020204042F
:1059200000000000000000000000E010080810E087
:1059300020000F102020100F00001010F8000000B1
:10594000200020203F20200000007008080808F0F8
:1059500020003028242221300000300808088870F8
:10596000200018202121221C0000804030F8000077
:1059700020060524243F24240000F888888808088D
:10598000200019202020110E0000E01088889000CF
:1059900020000F112020201F000018080888681818
:1059A000200000003E010000000070880808887098
:1059B00020001C222121221C0000F008080810E011
:1059C000200001122222110F14F8010B2038C0B25E
:1059D000704701EB00100090102308220021E8001E
:1059E000C0B202F031BA10231022002102F02CBA0A
:1059F00038B5DFF8984C51EA000214D100250CE0CC
:105A0000012D05D1009400F047F802F01DFA04467C
:105A10006D1C022D3EDA002DF2D1009410231022CD
:105A200000210846F1E7C8B1002933D101280AD185
:105A300004F12000009010231022502002F004FAFC
:105A400004F1400015E0022824D100941023102214
:105A5000002002F0F9F904F1600017E0D1B101294A
:105A60000DD104F1200000F016F802F0EDF904F178
:105A70008000009010231A460021084608E0022901
:105A800008D10094FFF7AFFF04F1A00000F003F885
:105A900002F0DAF931BD00901023102200215020CD
:105AA000704738B50C46451EEDB2602D10D3002569
:105AB0000EE0FFF789FF0C210FF2200201FB00200E
:105AC00000900C2306220021E8B202F0BDF9AD1DC2
:105AD00020780028EDD131BD00000000000000005A
:105AE000000000000000000000007C00000000003A
:105AF0000200000000040304030000000000000096
:105B000090FC90FC90000003000300001824FE4469
:105B100088000102070201003844F8D02CC00003BD
:105B200000010201C038E418E02001020201020174
:105B30000403000000000000000000000000F80660
:105B40000100000000030400000106F8000000044A
:105B5000030000009060F860900000000100000069
:105B6000002020F8202000000000000000000000BD
:105B7000000004030000000020202020202000005E
:105B80000000000000000000000000020000000013
:105B90000000C0300C02040300000000F8040404FC
:105BA000F8000102020201000008FC0000000002EF
:105BB00003020000188444241800030202020200B9
:105BC00008042424D800010202020100C0A098FCAD
:105BD00080000000020302007C242424C40001028F
:105BE00002020100F0482424C80001020202010060
:105BF0000004C4340C00000003000000D824242456
:105C0000D80001020202010038444424F8000102D5
:105C1000020100000000100000000000020000006F
:105C20000000200000000000060000000060900856
:105C3000040000000001020050505050505000007D
:105C40000000000000040890600000020100000055
:105C50001804C4241800000002000000F008E4F456
:105C6000847800010202020100E09CF0800002033F
:105C70000000030204FC2424D800020302020100F5
:105C8000F80404040C0001020202010004FC0404F4
:105C9000F80002030202010004FC24740C00020359
:105CA0000202030004FC24740C0002030200000042
:105CB000F0080444CC4000010202010004FC202052
:105CC000FC040203000003020404FC0404000202BA
:105CD00003020200000404FC04040C08080700008E
:105CE00004FC24508C0402030200030204FC0400A0
:105CF0000000020302020203FC3CC03CFC0403005F
:105D00000300030204FC30C4FC040203020003008D
:105D1000F8040404F80001020202010004FC242437
:105D20001800020302000000F8848404F800010255
:105D30000207050004FC2464980002030200030229
:105D4000182424448C000302020201000C04FC0409
:105D50000C0000020302000004FC0000FC0400012F
:105D600002020100047C80E01C040000030000002B
:105D70003CC07CC03C00000300030000049C609C0D
:105D80000400020300030200043CC03C04000002C3
:105D9000030200000C84641C0400020302020300DE
:105DA0000000FF010100000007040400000638C0E5
:105DB0000000000000010600000101FF00000004D7
:105DC00004070000000201020000000000000000C3
:105DD0000000000000000808080808080001020090
:105DE00000000000000000000040A0A0C000000172
:105DF0000202030202FE2020C00000030202010092
:105E000000C02020600000010202010000C020222A
:105E1000FE0000010202030200C0A0A0C0000001B9
:105E2000020202000020FC222204000203020200FF
:105E30000040A0A0602000050A0A0A0402FE2020FB
:105E4000C0000203020003020020E600000000027E
:105E500003020000000020E6000008080807000018
:105E600002FE806020000203000102000202FE0028
:105E70000000020203020200E020E020C000030054
:105E80000300030020E02020C00002030200030200
:105E900000C02020C00000010202010020E02020FC
:105EA000C000080F0A02010000C02020E00000012D
:105EB000020A0F0820E04020200002030200000038
:105EC0000060A0A020000002020203000020F820D1
:105ED000200000000302020020E00020E00000019A
:105EE0000202030220E000E02000000003000000A6
:105EF0006080E0806000000300030000206080609C
:105F0000200002030003020020E00000E020080857
:105F1000050300000020A060200000020302020030
:105F2000000020FF0100000000070400000000FF47
:105F300000000000000F00000001DF20000000044E
:105F40000700000002010102010000000000000043
:105F5000F8B504460D4600260FF248070DE014215F
:105F600001FB0070009010230A220021F6B20A20E3
:105F700000FB064000F099F8761C287888B115F8E7
:105F8000010B432808BF0B20E9D0452808BF0C208F
:105F9000E5D0A0F130010A293ABF3038C0B20A205A
:105FA000DDE7F1BD00E0180404040418E000000F70
:105FB0003040404040300F0000000808FC00000066
:105FC0000000000040407F404000000000780404D2
:105FD000040404887000006050484442414070004E
:105FE000003804048484C830000000384040404039
:105FF00040211E00000080601008FE000000000725
:10600000040444447F4444000000FC048484840469
:10601000040000384141404040211E0000C030884B
:10602000848484041800000F3140404040211E0049
:10603000001C04048444340C04000000007E0100B1
:106040000000000000708804040404887000001C34
:106050002241414141221C0000F0080404040418BC
:10606000E0000030414242422219070000000000D7
:106070000000000000000000000000000000000020
:106080001C1CC0300804040408300000071820401D
:10609000404020101C120C0202FE8282E20200002C
:1060A0000000407F400003007043C0B201F0CCBE4E
:1060B00000210A2202E090FBF2F0491C0028FAD1EC
:1060C000C8B270472DE9F84FDFF8504B6420A0614B
:1060D0004FF4C870E060012000F0AAF94FF4967008
:1060E00002F09AF800F001FB00F08CFDDFF8305B65
:1060F000A979DFF8300BDFF8306B0C22072924D8A0
:10610000DFE801F004041316191C1F21012908BF40
:1061100006F1100702D009B906F1140702FB0103CA
:10612000D6F818C0C3F808C00FE006F11C070CE051
:1061300006F1200709E006F1180706E0DFF8EC7A1F
:1061400003E06F1C01E006F124074A431358009353
:106150001218D2F80480B2F808906A78012A09D19E
:10616000002918BF012905D1016E0091D0F8648083
:10617000B0F86890012000F05BF94FF4167A01F056
:1061800043F8B0F5807F22D1A879062814D1687829
:10619000E0B100F0B7F88346316900F0B6F830613D
:1061A000BBF5167FB8BFD346C6F814B0B0F5167F5E
:1061B00055DAC6F810A052E0386880454FDAA0EBF7
:1061C000090038604045B8BF4046386047E001F0FC
:1061D0001BF8402819D1A87906280AD16878002828
:1061E00065D100F081FE7061316900F080FE3061A0
:1061F0005DE038680099884259DA4844386000996F
:106200008142C8BF0146396051E000F0FDFFB0F5A2
:10621000014F2BD1A879062814D16878E0B100F09D
:1062200071F88346316900F070F83061BBF5167F74
:10623000B8BFD346C6F814B0B0F5167F0CDAC6F86E
:1062400010A009E03868804506DAA0EB0900386044
:106250004045B8BF40463860642001F0DDFF00F0E3
:10626000D1FC00F049F80120287027E000F0CCFFB5
:1062700048F24001884224D1A879062809D16878DB
:1062800090B900F031FE7061316900F030FE30618C
:106290000AE038680099884206DA48443860009974
:1062A0008142C8BF01463960642001F0B5FF00F0AB
:1062B000A9FC00F021F802202870012000F0B8F8B5
:1062C00007E000F0A1FF48F24011884204BF00201F
:1062D000E06001F072F9E06800287FF44BAF00F055
:1062E0009BFF00F08FFC4FF44870E060C820A06175
:1062F00001202871BDE8F18F4FF4C870E0602820BC
:10630000A0617047401E6870716909B20120FDF7F5
:106310001FBF70B5DFF80449E069652804D3002089
:10632000BDE8704000F074BFDFF8F458E068B0F5E5
:106330002F7F04D22879012804BF0020287100F0A3
:1063400063FF000404D5002000F066FF6420E061D4
:10635000E06908B900F0C9F94FF4487600F054FF3D
:10636000B0F5807F05D1A87900280CBF0920401E18
:1063700008E000F049FF40280AD1A879092834BF75
:10638000401C0020A87100F03DFCE66001F0D8FD43
:1063900000F03AFFB0F5014F05D000F035FF48F2AC
:1063A0004001884232D10020A061A879092804D098
:1063B000082809D0FFF786FE26E002F0F0FE00F084
:1063C00021FC01F0BDFD1FE001F0F7F8FEF722FC13
:1063D00001F0B6FD01F064F800F012FF012803D1CE
:1063E00002F010FB02F089FCDFF8D45A287848B19B
:1063F000FEF735FB01F0E1F8FEF70CFC00202870F9
:1064000001F09EFD00F0FEFBE6600EE000F0FCFEF9
:1064100048F24011884204BF2879002805D100F0D5
:10642000FBFE00F0EFFB0020E0600020BDE87040C4
:106430002DE9F04389B0804601A8142101F0ECFB5E
:106440000020ADF800000FF6B0200088ADF818006D
:106450000FF6A8200088ADF80200DFF8C457A8792D
:106460004FF00A09092800F07F80082808D0002290
:1064700005EB800041690020FEF73AFFA879082863
:1064800077D0DFF8A46706F110047FA730B9606801
:1064900000F025F9606890FBF9F03AE0012806D198
:1064A000306900F01CF9306990FBF9F031E06426A6
:1064B000022808D1E068B0FBF6F200F012F9E068BB
:1064C000B0FBF6F025E0032808D12069B0FBF6F216
:1064D00000F007F92069B0FBF6F01AE0042806D1B5
:1064E000A06800F0FCF8A06890FBF9F011E0052826
:1064F00012D1DFF838472068B0FBF9F200F0F1F86C
:106500002068B0FBF9F109FB11023946FDF7ABFE3B
:106510002068FFF7CDFD23E006280AD1687800281F
:1065200007BF03225AA103225AA101A802F0F4FFD7
:1065300015E0072816D1207D002807BF032256A1A9
:10654000032256A101A802F0E7FFDFF87879387836
:10655000217D884203D001F0C5FC207D38700220E7
:10656000A87006E0092804D10FF6941101A801F0E3
:1065700078FB4BA64BA7DFF8A446B8F1010F41D139
:10658000A0693C283BD22878012813D100F097F865
:10659000A879052804D100F09DF800F08AF802E0FF
:1065A000002201A90920FEF7A3FE0022394600F0CF
:1065B0007BF812E0022818D100F087F8A8790528A6
:1065C00018D0002201A90920FEF792FE002206A998
:1065D000A8780930C0B2FEF78BFEA06900284FD121
:1065E0006420A061002028704AE000F068F8A879D3
:1065F0000528E6D100F06EF800F05BF8E4E700F063
:1066000064F839E0A879082820D1A069002837D19A
:1066100000F059FF6978012907D1014600F068FCB4
:1066200090FBF9F20FF6E80103E090FBF9F20FF6A8
:10663000E80107A801F015FB002207A90820FEF7D2
:1066400057FEFDF7B3FD1420A06119E0092804D11D
:1066500001A90420FFF725FA12E000F036F8A87926
:10666000052804D100F036F800F023F802E00022FB
:1066700001A90920FEF73CFE0022314600F014F883
:1066800009B0BDE8F08300002564000040710008F7
:106690004354000046540000525400004C54000083
:1066A0002020200020000000A8780930C0B2FEF7AA
:1066B0001FBE012200A9A8780830C0B2704700228E
:1066C0000DF102010820FEF713BE00223946082012
:1066D000FEF70EBE002201A90920FEF709BE90FBBD
:1066E000F9F2394601A801F0BCBA012000F094BDCE
:1066F00070B582B0044650250E01F6B20FE01021AD
:1067000005F1100001F0C7FB0094102310220021B6
:10671000E8B201F099FB103D192001F07DFDB54272
:10672000EDDA73BD2DE9FD4E81B00A20DFF8F824C3
:10673000B2F9142092FBF0F212B2642392FBF3F54B
:10674000EDB203FB152999FBF0FA5FFA8AFA03FB15
:10675000152200FB1A20C0B20090DFF8C474F8784C
:10676000012803D1F8630020386406E0022805D12F
:106770000020F863102038640020F8700020B8630F
:1067800089460FF29C7405E0FEF726FC8BF8380171
:10679000701CB863BE6BDFF830B7B6EB490F1FDA79
:1067A000B34404EB4510305CFEF716FC8BF8D800C0
:1067B00004EB4A10305CFEF70FFC8BF8F8000098F1
:1067C00004EB4010305CFEF707FC8BF81801301921
:1067D000797801290CBF90F8E00190F8A001D3E787
:1067E0009DF80400C0F1030009FB00F04300F86BC2
:1067F000396CDFF8D82601E003EB4903062505FBD9
:1068000009F5AB422BDA002509E022F81E4032F8E8
:106810001E60340A8AF8D8408CF8D8606D1C4D454B
:10682000EADA03EB090AAA440AEB0B0C03EB050EA8
:106830000EEB0B0A9AF8D8409CF8D86046EA04247C
:1068400022F81E409DF8086026B9002914BFCC40EC
:106850008440DAE700280CBF8C40C440D5E7002014
:106860001AE005EB0B0494F8D800FEF7B5FB84F8AA
:10687000D80094F8F800FEF7AFFB84F8F80094F81D
:106880001801FEF7A9FB84F8180194F83801FEF707
:10689000A3FB84F83801681CB863BD6BB5EB490FE6
:1068A000DFDB0BF1D8000121B963FEF7D3F8B86B39
:1068B0000007000E01F0C8FAB96B491CB96305293D
:1068C000F3DBF86B396C50EA010202D019B91028D9
:1068D00004D1002005E0481E386401E0401CF86344
:1068E000012004B0BDE8F08E2DE9F041CE48B0F9AA
:1068F00014800FF64C0400212046FFF7F9FE4FF4F8
:106900007A7798FBF7F6F6B20FF21465012105EBE2
:106910004610FFF7EDFE07FB1688642798FBF7F695
:10692000F6B2022105EB4610FFF7E2FE032107FB5A
:1069300016800A2290FBF2F0C0B205EB4010FFF780
:10694000D7FEDFF88C054078002819BF042105F533
:10695000F070042105F5D070FFF7CAFE052104F19F
:106960002000BDE8F041C3E670B5DFF86825B2F954
:1069700014204FF47A7392FBF3F4642592FBF5F63E
:10698000B6B249B9801890FBF5F190FBF3F080B2F4
:10699000A4B2A04209D10AE0101A90FBF5F190FBD5
:1069A000F3F080B2A4B2A04201D0032070BD89B23E
:1069B000B14201D0022070BD012070BD2DE9F84F19
:1069C000FFF793FE9748964C6178002907BF05684A
:1069D000D0F80480056ED0F86480934EB769DFF874
:1069E000F894D9F80C00A8B3606B38B1002060634C
:1069F00000F012FC01F0A4FAFFF776FF4FF4C87B19
:106A000000F002FCB0F5A07F26D101F099FA00F069
:106A1000F9F810E0D9F80C001421B0FBF1F201FBF9
:106A2000120008B9FDF7C2FBD9F80C0008B9C9F883
:106A30000CB000F0C2FD00F0E7FB48F240118842C4
:106A4000E8D1C9F80CB0D9F80C00B0F5AF7F3CBF65
:106A50000020E071BDE8F18F00F0D6FBB0F5807F3B
:106A600026D17069804548DA0020E0710120E0708D
:106A70000121B8B2FFF778FF05467069B9B2401A34
:106A800070614045B8BF4046706100F0AEF8002824
:106A9000FBD10220E07000F0A8F80028FBD1002113
:106AA0000120FEF7A5FF7069404526D1012121E0B4
:106AB00000F0AAFB402823D17069A8421DDA00200B
:106AC000E07100F09AF800F085F8D8BF28467061B0
:106AD00000F08FF80028FBD10220E07000F089F868
:106AE0000028FBD100210220FEF782FF7069A84236
:106AF00003D102210020FEF77BFF00F083F8A0E71E
:106B000000F082FBB0F5014F2FD1706980455DDA4E
:106B1000E079FA2804D2B1690A2904BF0A30E07189
:106B2000B069E1790D180120E0700121A8B2FFF7EA
:106B30001BFF07467069A9B2401A70614045B8BF93
:106B40004046706100F04DF80028FBD10220E07053
:106B500000F047F80028FBD100210120FEF748FF94
:106B60007069404532D101212DE000F04DFB48F223
:106B7000400188427FF467AF7069A84226DAE07965
:106B8000FA2804D2B1690A2904BF0A30E071B06959
:106B9000E1790F1800F031F800F01CF8D8BF284652
:106BA000706100F026F80028FBD10220E07000F0B0
:106BB00020F80028FBD100210220FEF719FF7069A0
:106BC000A84203D102210020FEF712FF322001F07B
:106BD00023FB92E782467069B9B20844706185422E
:106BE00070470122102138469CE5012210212846D9
:106BF00098E500221021504694E50120E070002124
:106C0000B8B2B1E6002000F003BB20B1B248C068C2
:106C100010B1FFF77EBBD1E670470000683100205D
:106C2000240500200C040020FC040020C4060020E1
:106C30002DE9F0474FF00A08A74DA54CDFF89492D4
:106C400000F0C4FC01280ED0032849D0042800F02D
:106C5000DC80052800F09280062800F09680082845
:106C600000F0C3802AE1606B012801D100F038F9FF
:106C7000607A40B901F07BF900214846FDF7F2FC4B
:106C80000120607207E0A86928B9686918B1FDF7AA
:106C9000EDFA3220A861686978B9208A401C208208
:106CA00080B2322805D1E089411EE181C0B201F0F5
:106CB0007BF8E08908B901F08AF802F05CFC012851
:106CC00003D000F0A1FA00282ED0D9F82000686186
:106CD0003320E08101F068F8BDE8F04701F071B8B9
:106CE000606B28B90120606300F096FA01F028F982
:106CF00000F074FC8246207ABAF1010F06D008B188
:106D000001F01EF90020A081207224E0A1894B2906
:106D100008BF002804D101F013F90120207200E01F
:106D2000C8B1A86908B12868C8E000F05BFC064655
:106D3000D9F814706078012807D1314600F0D8F8EE
:106D4000064639B200F0D4F8074639B23046FDF7AE
:106D5000CBFD3220A8612868002804BF207A0028D3
:106D6000E2D100F03FFC0646D9F814108142B4BFCE
:106D7000401A081A122800DA0E4688E057480078B0
:106D800000B10120BDE8F0473FE7606B012801D169
:106D900000F0A6F800F038FA48F24001401A07D097
:106DA000C03802D0403806D007E00120A0720BE0C6
:106DB0000220A0720DE0A07201E0A07A10B9FDF7E8
:106DC00027FD0AE0012802D101F0D1F805E00228F0
:106DD00003D101214846FDF745FCA07A03286DD078
:106DE000FFF710FF0320A07268E0606B10B901206C
:106DF00000F077F8606B012804BFA86900285DD116
:106E0000FDF714FF3220A86158E000F0EBFB0646C6
:106E1000D9F810108142B4BF401A081A1328B8BF1D
:106E20000E4600F0DBFB8246207ABAF1010F06D055
:106E300008B101F085F80020A081207221E0A1892D
:106E4000322908BF002804D101F07AF8012020720D
:106E500000E0B0B1A86900287FF465AFD9F81070E0
:106E60006078012807D131B200F042F8064639B205
:106E700000F03EF8074639B230B2FDF735FD32205A
:106E8000A8612868002804BF207A002816D16078FD
:106E9000012803D131B200F02BF8064630B290FB46
:106EA000F8F109B20120FDF79EF902F061FB0146FD
:106EB0005046FEF743F9A089401CA081BDE8F08749
:106EC000B80600202432002024020020302F0020A9
:106ED00024050020FC04002068310020D704002095
:106EE0000020606301F02CB801206870716909B25C
:106EF0000020FDF72DB900003E0000003C0000001E
:106F000020466163746F7279205265736574000066
:106F100025647D200000000025647B200000000027
:106F2000000000F8FE0301010103FEFCF000000078
:106F30000000003F7FE0808080C07F3F07000000AE
:106F400000000008040406FFFF000000000000002D
:106F500000000000808080FFFF8080800000000033
:106F6000000000060701010181C37F3E0000000010
:106F7000000000E0F0D8CCC6C3C0C0E000000000B4
:106F80000000000607818181C1633F1E00000000F0
:106F9000000000E0C080808181C37F3E00000000CF
:106FA00000000000C060380CFFFF0000000000007F
:106FB0000000060705040484FFFFC48406000000E7
:106FC000000000FFFF8383838383830300000000AE
:106FD000000000E0C080808080C17F3F080000008A
:106FE000000000E0F89C8EC2C3C181810000000057
:106FF0000000003F7FC080808080C17F3F00000094
:107000000000000F0303030383E33B0F03000000B2
:107010000000000080E0781E070100000000000072
:107020000000187E7EC381818181677E3C00000064
:1070300000001C7EFFC180808081E37F3C00000057
:10704000000078FEC603010101039EFCF000000071
:1070500000000001018383C361713F0F0100000044
:107060000000000000000000000000000000000020
:107070000000000000000000000000000000000010
:107080000000000000000000F00000000000000010
:1070900000000101010101011F01010101010100C5
:1070A00000000000000000000000000000000000E0
:1070B00000010101010101010101010101010100C2
:1070C0000E11110EE0F80C060301010101021E0071
:1070D000000000000F3F70C0808080808040200052
:1070E000000000000000C0C0C0C0000000000000A0
:1070F00000000000000030303030000000000000D0
:1071000008142214080202FE06020202C202061E2F
:1071100000000000008080FF818101010300000069
:10712000C03008040402FAAAFA0204040830C000BD
:107130000718204058A4DBDEDBA4584020180700C5
:10714000808040402020101008080404FE00000049
:107150000000010102020404080810103F000000B2
:107160000000FE0404080810102020404080800029
:1071700000003F1010080804040202010100000092
:10718000008080C0C06060303018180C0CFE000019
:10719000000101030306060C0C181830307F0000B4
:1071A0000000FE0C0C181830306060C0C0808000F9
:1071B00000007F303018180C0C0606030301010094
:1071C0008080C0C0E0E0F0F0F8F8FCFCFE000000B9
:1071D00000000101030307070F0F1F1F3F000000FE
:1071E0000000FEFCFCF8F8F0F0E0E0C0C080800099
:1071F00000003F1F1F0F0F070703030101000000DE
:10720000DFF8640300787047DFF860038068704738
:10721000DFF8581388607047DFF850130870704724
:10722000DFF844034078704770B5044600250A260D
:10723000DFF83C0300F0E2FC4519761EF8D10A2085
:10724000B5FBF0F1DFF8202340F66373994203D3D6
:1072500004205070002070BD48439021B0FBF1F134
:1072600000200FF2603333F81050A942D56808D2DD
:10727000401C042805D20228F5D1002CF3D0A942E5
:10728000F6D3401C70BDF0B5BA490868C04300F49D
:1072900000700968C94301F04002B449B74B1B783C
:1072A00013B100234B808B80B0F5007F04D1002305
:1072B000CB804B885B1C4B80402A04D10023CB80C1
:1072C0008B885B1C8B808E884F880C784FF401452F
:1072D00048F2400CA84B192F0CD3192E04D3A4B19B
:1072E00048F240148C6010E07CB176B993F82440E9
:1072F0003CB108E0192E08D33CB137B993F82440CB
:107300000CB18D6001E0C1F808C04FF480744FF4F7
:10731000A075A0B9192F0DD267B1192E03D216B1DD
:107320008D60888006E093F8240000281ABF402072
:1073300088608C60C888401CC88000204880D2B912
:1073400088884A88192A07D232B1192804D268B12C
:107350008D600020488009E0192807D230B193F8E9
:107360002400002812BF8C6040208860C888401C20
:10737000C88000208880F0BD70B581494A68D30874
:107380009CB2C5000E781EB94D600120087009E05E
:10739000844234BF041B241AA4B23D2C3CBF801885
:1073A000C51A4D60E80870BD38B5002000F027FF11
:1073B000744810210160192000F032FF724D0A203C
:1073C00021E0002000F016FF69684118AA68824297
:1073D00038BF0246AA60EA68904288BF1046E8605B
:1073E000288801280CD1A868081AE968401AC00842
:1073F000FFF7C2FF0446002141F28830E860A9602F
:1074000069602888401E288028880028D9D1204615
:1074100032BD5E490A7822B9C000486001220A7074
:1074200007E04A688018931002EB5372A0EBE20069
:107430004860811000EB5170C010704738B50025CE
:10744000514C0A2026E0012000F0D4FE21694118A9
:107450006269824238BF02466261A269904288BF77
:107460001046A0612088012811D16069081AA1691D
:10747000401AC008FFF7CDFF40F6E4414843000B37
:10748000A0F5FA75002141F28830A06161612161A7
:107490002088401E208020880028D4D1284632BD74
:1074A00010B5FFF781FF0446FFF7C8FF2E49B4F57A
:1074B000C87F05D2B0F5967F02DA8C60012000E02B
:1074C0000220087010BD70B50446FFF76DFF054639
:1074D000FFF7B4FF24494A8840F6FF739D4202D16A
:1074E0008B885B1C07E00023A5F6D966B6F5937F71
:1074F00034BF521C00224A808B808A884B883C2AE9
:1075000002D353B9032207E01AB90A2B28BF02227B
:1075100002D20A2B01D201224A70A4F57A72962374
:107520005A4340F6B83392FBF3F250328968B4F50F
:107530007A7F08BF0A3A00D01CB18B18AB42B8BFA3
:10754000AD1AB0F5C87FC8BF4FF4C87040F22632FC
:10755000691A4FF47A73504303FB010090FBF2F079
:1075600000B270BD00000000B80600208831002085
:107570000028014008080140FC04002028050020E4
:10758000E4310020140C014034060020EC310020CE
:1075900010B5044645F2555002F092F8032002F06F
:1075A00092F80A2060434003000C02F08FF802F0CA
:1075B00090F802F093F8012010BD80B502F089F830
:1075C000012002BD2C0196005A002800DFF8380483
:1075D00000787047DFF8301408707047DFF828042F
:1075E000008C7047DFF82004B0F922007047282291
:1075F0000FF28841DFF8140401F07EBFDFF80804C1
:107600000021018141818181C181C16101610F211D
:1076100081820221C18201210183704730B500229D
:10762000DFF8E4134881B1F908300446181B88815B
:10763000CD6900B2B0F5FA7FBCBF01224519A34263
:1076400005DAE31A1BB2152BA4BF00250022CD6179
:107650001F28B4BF002301238C8ACD8A6A43CD69D9
:107660006A4300FB04220C8BB1F90E50451B6C439E
:1076700003FB0422C881012AB8BF002205DB41F2C6
:1076800071708242A8BF41F270720A6190B230BD3F
:10769000DFF874231181884204DA091A122904DB05
:1076A000002105E0411A132901DA022100E001213D
:1076B0001184B3E7F8B54FF47A76DFF85473DFF846
:1076C0005443D14D287801280ED0032859D00428DE
:1076D00000F0C280052800F01781082800F05B81C7
:1076E000092800F04981F1BDFFF78EFD402811D037
:1076F000B0F5807F26D16878012825D000F0B1F957
:1077000004281FDA032028700020A8842060A061CC
:10771000606117E06878012816D00120E870002227
:107720000FF244310020FDF7E3FD0020FEF780FE5C
:10773000E66000F005FCB8480721017005202870BC
:107740003220E061687820B1E06910B96870FFF715
:107750005FFD00F086F940B9FCF7EAFC012804BFA0
:107760000020FCF7E9FC08202870A878042818BF3E
:10777000012805D0A86C606100F05FF90120A870B5
:10778000F1BD287948B100202871A44801F0B2FF6A
:107790000120FFF741FD00F050F9FFF735FD48F2F9
:1077A0004001401A04D0C03802D040380FD018E051
:1077B00000F049F900F0C4FB0020E87005202870B3
:1077C00000F03BF900206060E660962008E000F0E1
:1077D00016FD00F035F901202870A870687032207D
:1077E000E06100F03EF9042807DB00F02CF900F01E
:1077F00027F900F02FF93220E061EE6B387810B1F4
:1078000000F024F90646606848B930B2FFF75BFE25
:1078100000F00EF900B200F0F2FC1E20606000F0F3
:10782000F2FC00B9606001F0A6FE90B9A88C18B90E
:107830000120A884686CA060A068002857D1288423
:10784000A06100F0DCFC00F0F8F8A86C6061042096
:107850004CE00020A8844AE0AE6B387810B100F00C
:10786000F5F80646E96BA86B814207DA387820B153
:1078700009B200F0ECF8064600E00E46606848B930
:1078800030B2FFF720FE00F0D3F800B200F0B7FCF2
:107890001E20606000F0E5F804280DDB00F0D3F84E
:1078A00000F0CEF801202870A86C60610420A87058
:1078B000012068703220E061606958B900F09FFCD7
:1078C00000F0BEF801206870C820E0610420A870B4
:1078D0000120287001F04FFE012802D0FFF794FC30
:1078E00028B10020A0616061A88403202870FFF700
:1078F00097FC02284ED3FCF71BFC012804BF002094
:10790000FCF71AFC082044E0E06820BB444E01204C
:1079100030706061E878012803D101F073F801F05C
:10792000ECF90020307001202871E87858B9FFF791
:1079300073FC00F082F83B4801F0DCFE0320287065
:107940000020206007E000F07EF800F079F800F0F9
:1079500081F86420E061FFF757FC48F2401188424B
:1079600004BFE87800284DD1E060FFF751FC00200B
:10797000BDE8F240FFF750BCE06920B10020BDE84F
:10798000F240FFF745BCFFF73FFC00283AD0E66025
:1079900003202870F1BDFFF743FC801E012803D9A6
:1079A000801E012814D926E0AE6B387810B100F0A3
:1079B0004DF8064630B2FFF786FD6884FFF730FCCD
:1079C000012818D1032028700020FCF7B5FB12E035
:1079D00000F047F801280EDB00F043F804280ADA2B
:1079E00000F031F800F02CF8012068700220A0614E
:1079F000A870012028700C4820B100F024F80B4832
:107A000010210160F1BD0000D4040020FC0400201E
:107A100025050020683100202A0500208096980066
:107A2000B8060020C0C62D0007820008140C0140D3
:107A3000688431B2B5F922002AE60020FFF7E8BBDE
:107A40000020FFF7E9BB002000F0D9BB31B20120D4
:107A5000FCF77EBB012028700320A870012068700D
:107A600070470120FFF7E0BB2020202020202020AD
:107A7000202020202020202000000000322E31373E
:107A8000000000000000000000000000D00700001F
:107A9000B80B00006400000050460000A08C0000FD
:107AA0000000000080B55749884208D101214FF4F9
:107AB000007001F06CFF00214FF4007016E0524995
:107AC000884208D101214FF4806001F060FF00215D
:107AD0004FF480600AE04D4988420BD101214FF4F8
:107AE000004001F054FF00214FF40040BDE8044085
:107AF00001F04DBF01BD4268454B1A400B681A4367
:107B00000B7942EA032242608268424B1A40CB68FA
:107B10001A438B681A434B7942EA43028260C26A75
:107B200022F47002097C491EC9B242EA0151C162C5
:107B300070470029816812BF41F0010149084900DE
:107B4000816070470029816814BF41F4807121F47D
:107B5000807181607047816841F0080181607047E1
:107B60008068C008FFE700F00100704700298168C5
:107B700014BF41F4A00121F4A0018160704770B5E9
:107B800007240A290BD3A1F10A0505EB4505C668B0
:107B9000AC4026EA0404AB402343C36008E001EB99
:107BA00041050669AC4026EA0404AB402343036167
:107BB0001F23072A0AD2521E02EB8202446B934013
:107BC00024EA030391401943416370BD0D2A0AD290
:107BD000D21F02EB8202046B934024EA030391401C
:107BE0001943016370BD0D3A02EB8202C46A9340EF
:107BF00024EA030391401943C16270BDC06C80B296
:107C0000704700000024014000280140003C014072
:107C1000FFFEF0FFFDF7F1FF002201F0EDBE70B5B1
:107C20000022002803D52D220A70012240420A2397
:107C300090FBF3F4012502E094FBF3F45D43002C88
:107C4000FAD155B190FBF5F404F130065654521CAC
:107C500005FB140095FBF3F5F3E7002050540846AC
:107C600070BD0CB42DE9F04383B004460D460027E7
:107C70000026002C00F083800DF128084FF00A093F
:107C800003E0795D315506467F1C795D002973D08C
:107C9000701C2529F5D17F1C795D632906D06429E4
:107CA00014D0662921D0732905D0EAE708F1040829
:107CB00018F8041CE6E758F8040B00210A5C002AB7
:107CC0001EBF3255491C761CF8D1DDE700A958F8D3
:107CD000040BFFF7A4FF002100A8085C00281EBFCA
:107CE0003055491C761CF7D1CEE758F8040B411EDD
:107CF000092924BFA0F10A015A29C5D3A0F16401C2
:107D0000B1F5617F15D290FBF9F109FB110030301C
:107D1000E07091FBF9F009FB10113031A1702E21B8
:107D2000617090FBF9F109FB1100303020700426DE
:107D3000AAE7A0F57A7142F228329142A4D290FBD0
:107D4000F9F109FB11003030207191FBF9F009FBCA
:107D500010113031E1702E21A170014691FBF9F034
:107D600009FB10113031617090FBF9F109FB110032
:107D700030302070052687E7002030552046BDE8CA
:107D8000FE035DF80CFB50F8041B61B150F8042BA6
:107D9000D30744BFA9F101039A18002342F8043B1A
:107DA000091FFAD1EFE7704780B500A90FF24832FA
:107DB00013680B608DF803003C22042100F013F8D7
:107DC00001BD00B583B000A80FF2303104E000B56A
:107DD00083B000A80FF22C310CC90CC03C22062144
:107DE00000F001F807BD00A801F04CBD10B5A0B02F
:107DF0000C4640218DF80010411CC9B2012000AA98
:107E000003E014F8013B8354401C8842F9DB3C2218
:107E1000FFF7E9FF204620B010BD30B583B000AABF
:107E20000FF2E82330CB30C200AA414B93F8243044
:107E3000012B18BF203050715078081850703C2228
:107E40000821FFF7D0FF37BD2DE9F04104469046E9
:107E50005818C0B2CE080722114218BF761C8110F4
:107E600000EB5171CA10B0EBC2011ABF501CC5B271
:107E7000D5B2069F09E031462046FFF7CEFF3946CE
:107E80004046FFF7B3FF0746761CF6B2AE42F2DB80
:107E90003846BDE8F08130B5A1B004460D4601A8D2
:107EA000FFF7BAFE00F05FF82A460021E0B2FFF7C4
:107EB000CBFF00F058F82A460821E0B2FFF7C4FFD4
:107EC00021B030BD80B54FF48070ADF800000320C4
:107ED0008DF8020010208DF8030000A9154801F06C
:107EE000A5FD01BD10B5144C4FF48071204601F082
:107EF00004FE022000F090F94FF48071204601F05A
:107F0000FAFD022000F088F90C48094991F8241084
:107F1000012903D1C821C172A12102E0C021C1728F
:107F2000A021C1743C222E21BDE8104001F0AABC62
:107F3000FC040020000C01400008014068050020FE
:107F400000B5A1B0802101A8FFF766FE00F00BF894
:107F5000802200F0C4F800F006F88022194600F0F4
:107F6000BFF821B000BD01A80090082370472DE99B
:107F7000F041A2B00125802102A8FFF74DFE0022AA
:107F800001A90FF2901000F05DFD040000F07F8069
:107F90002078422804BF60784D2840F0988094F8FB
:107FA0003600FF2804BF94F83700FF2804D194F866
:107FB0003800FF2808BF002500F08CF801260F27A5
:107FC000002000210C2202FB0712121992F83E2019
:107FD00080234FF0080C03EA020E1DB1BEF1000F22
:107FE0000CD102E0BEF1000F08D00DF1080E86445E
:107FF0009EF8018046EA08088EF8018000F076F8C5
:10800000E9D1491C0C29DDD37606360E7F1E082FD8
:10801000D6DA02A800900823602200F060F8FFF78B
:10802000CCFA00F057F801260027002000216FF05D
:108030000B0202FB0712121992F8922080234FF0D4
:10804000080C03EA020E1DB1BEF1000F0CD102E0D4
:10805000BEF1000F08D00DF1080E86449EF8018095
:1080600046EA08088EF8018000F040F8E9D1491C82
:108070000C29DCD37606360E7F1C082FD5DB02A830
:10808000009008236022082100F02AF81BE00FF27C
:1080900090010020FDF705FDFFF78FFA00F022F8B0
:1080A000FFF78BFA00F01EF8FFF787FA00F01AF8D6
:1080B000FFF783FA0FF27C0000901023602200216A
:1080C0000020FFF7C1FE00F00DF8FFF776FA22B0AE
:1080D000BDE8F0817F210DF1090001F03BBD0021D9
:1080E0000020B1E64FF47A7000F096B8401CC0B2A0
:1080F0005B08BCF1010C704780818000808D80148A
:1081000080AF0000808D801080AE000080B08021A4
:108110008020807F4C4F474F494E2020424D5000D9
:10812000412E477269676F72696576203230313748
:108130000000000000000000C0E0F8F8FCFC7E3EFB
:108140001E1F0F0F0F0F0F0F0F8F8F8F8F8E8E9E93
:108150009E8C8C840080C0E0F0F8FCFCF933070FA3
:108160001F3F7FFFFEFCF8F0E0C000000000008031
:10817000C0E0F0F8FCFE7F3F1F0FE7F3F9FCFEFEC6
:10818000FFCFCFCFCFCFCF8F8F8F9F9E1E1C38308A
:1081900000000000E84848EE01031F1F3F3F3E7CFF
:1081A0007878F0F0F0F0F0F0F071737333331F6F04
:1081B00073797C7E7F7F3F1F0F0F0F0D0C0C0C0C13
:1081C0000C0C0C0C0103070F1F3F7F7E7C7E7F3F52
:1081D0001F0F0703010000000C1C3C3C3C7C7DF998
:1081E000F1F1F1F3F3F3F3F3F37F7F7F3F3F3F1FB1
:1081F0001E0C0000DFF8181431F810007047DFF88B
:108200001414C8607047DFF80C04C0687047202160
:10821000DFF8040401F09EBCDFF8F813142202E03A
:10822000DFF8F0130A225043886088680028FCD1E8
:108230007047DFF8E8134FF400620A614FF4805290
:108240000A61002808680AD120F4404040F44050F8
:108250000860086820F4402040F4403009E020F431
:10826000804040F430400860086820F4802040F4EA
:1082700030200860704780B501F040FB102001F00D
:1082800073FC012001F06AFCE5484168E54A1143AE
:108290004160016841F080710160012001F047FBFD
:1082A000012001F047FB392001F07AFB0028FAD0C9
:1082B000022001F042FB01F047FB0828FBD101211D
:1082C000052001F049FB012140F20C6001F04DFB5B
:1082D0000121032001F052FB0120BDE8024001F022
:1082E00038BB80B501464FF0006001F0F0FC4FF460
:1082F000A06001F0BBFC14208DF8000002208DF876
:10830000010000208DF8020001208DF8030000A874
:1083100001F0B1FC01BD38B58020ADF800000020AF
:108320008DF80300C04C00A9204601F07FFB4FF4FC
:10833000807000F022F88DF80300BC4D00A928469B
:1083400001F074FB0121BA4801F0D9FB102000F0C4
:1083500014F800F01CF8012000F016F8022000F0DC
:1083600013F84FF41070ADF8000048208DF80300AA
:1083700000A9204601F05AFB31BDADF800000320F2
:108380008DF8020010207047ADF8000000208DF835
:10839000030000A9284601F049BB2DE9F04190B047
:1083A0004FF420442546A34E304601F0A5FCA248D8
:1083B0000590974806900020079002200890002022
:1083C000099080200A904FF480700B904FF48060E9
:1083D0000C9020200D904FF400500E9000200F9034
:1083E00005A9304601F0D5FC0121304601F0ECFC36
:1083F000924E3046FFF756FB00F05FF84FF46027CF
:1084000002970020039002208DF8100000A930464A
:10841000FFF771FBDFF828824046FFF743FB00F0CF
:108420004CF802970020039001208DF8100000A95D
:108430004046FFF760FB0723022207213046FFF783
:108440009EFB0723012208213046FFF798FB0523F6
:10845000012209214046FFF792FB01213046FFF738
:1084600071FB01213046FFF764FB01214046FFF715
:1084700060FB3046FFF76FFB3046FFF771FB20B122
:108480002846451E0028F7D114E04046FFF763FB5D
:1084900025464046FFF764FB20B12846451E0028CC
:1084A000F7D107E001213046FFF760FB012140468C
:1084B000FFF75CFB10B0BDE8F081002000900120C8
:1084C0008DF804008DF80500704700B585B04FF4B5
:1084D000E06001F0CBFB2F20ADF8040042F20F70FA
:1084E000ADF808000020ADF80A00ADF8060001A9BB
:1084F0004FF0804001F08EFC00F060F801F0E0FCED
:10850000012200F05BF801F0D3FC00F057F801F015
:10851000C5FC1C2000F02AF805B000BD1FB54FF4C3
:10852000E06001F0A3FB2F20ADF804003120ADF88E
:1085300008004FF48070ADF80A000020ADF8060086
:10854000404C01A9204601F065FC0121204601F0C4
:10855000B7FC01220121204601F0AAFC012120469E
:1085600001F09CFC1D2000F001F81FBD8DF80000FB
:1085700000208DF8010001208DF802008DF8030025
:1085800000A801F078BB10B500F018F801F0A2FCCB
:1085900000202D4C04EB80014A6812B14A68521E3B
:1085A0004A60401C0828F5DB2078411C2170022815
:1085B00003D1FEF768FE0020207010BD01214FF0AE
:1085C0008040704780B501211E4801F083FC1148AE
:1085D000416811B14168491E4160816811B18168EB
:1085E000491E8160C1680278184B49B1C168491EB3
:1085F000C160002A19BF1021596010211960D243AF
:10860000C16811B9102159600022027001BD00003B
:108610000C320020B03100206831002004080140F5
:10862000001002400A84680000080140000C01406C
:1086300000013000080002404C24014000240140A9
:10864000002801400004004064310020100C01406B
:1086500070470000F8B5DFF8C44B04F11005642240
:108660000A2308291CD8DFE811F009001C002F009C
:1086700069009600AC00E500F000F800DFF8A01BF0
:10868000097800290CD1017845785D4302FB01513E
:108690008078401841F2D041401A00B2584320611E
:1086A000F1BDDFF87C1B09780029F9D10178447805
:1086B0005C4302FB01418078401841F2D041401AEE
:1086C00000B258436860F1BDC17846788478A1F162
:1086D000300C5FFA8CFCBCF10A0F0CD200784FF41E
:1086E0007A77564307FB006003FB0400081800F587
:1086F0003C57B03718E0A4F13001C9B20A2909D2B9
:10870000007803FB06F102FB0010201841F2D04173
:10871000471A09E0A6F13001C9B20A2904D200784B
:1087200003FB0060A0F50477DFF8F40A0078002866
:1087300003D13FB202FB07F0E860F1BDC178847855
:10874000A1F13006F6B20A2E0DD206784FF47A77F0
:108750004078504307FB060003FB0400081800F5AF
:108760003C57B0370DE0A4F13001C9B20A2908D254
:1087700001784078584302FB0100201841F2D041B3
:10878000471ADFF89C0A0078002803D13FB202FBA9
:1087900007F02861F1BD46780778A6F13000C0B235
:1087A0000A283ABF03FB0760A0F50477303FDFF8E3
:1087B000700A0078002873D13FB203FB07F0A8606D
:1087C000F1BDC178467807788478A1F13000C0B255
:1087D0000A280BD24FF47A70724300FB072003FB88
:1087E0000400081800F53C57B03717E0A4F130003A
:1087F000C0B20A2808D203FB06F002FB07002018CB
:1088000041F2D041471A09E0A6F13000C0B20A286F
:108810003ABF03FB0760A0F50477303FDFF8000A9A
:10882000007800283CD13FB203FB07F0DFF8F419D1
:108830000860F1BDDFF8E819097889BB00783038A5
:10884000C0B2BDE8F240FBF77BBCDFF8D419097871
:1088500031BB007830382875F1BD467807788478C8
:10886000A4F13000C0B20A2808D203FB06F002FBD4
:108870000700201841F2D041471A09E0A6F1300064
:10888000C0B20A283ABF03FB0760A0F50477303F67
:10889000DFF88C09007818B9DFF88C093FB207605F
:1088A000F1BD000030B5082920D8DFE801F005054A
:1088B0003F53626F7E7E84008178A1F13002DFF841
:1088C0006C391B78002BD2B212D10A2A3FBF4478F0
:1088D000A4F13002D2B20A2A17D20378352B14D26F
:1088E000342B03D1302C08BF30295AD1012030BDA0
:1088F0000A2A3FBF4478A4F13002D2B20A2A04D235
:108900000378A3F13200C0B2072879D2372B06D101
:10891000362C75D2352CE9D1332971D2E6E7322BCA
:10892000E4D1312C6CD3E1D1332939E0C17830392D
:10893000C9B20A2921BF81783039C9B20A29D5D3F1
:1089400041783039C9B20A295AD200783638C0B2D3
:10895000042825E0C1783039C9B20A29C6D3817804
:108960003039C9B20A294BD200783138C0B209284F
:1089700016E0037840783038C0B2062804D2A3F15C
:108980003000C0B203280BE0302B0CE003784078B5
:108990003038C0B2032805D2A3F13000C0B20A2893
:1089A000A4D32DE0352BA1D22AE00378312B9DD022
:1089B000302B25D19AE74478037881780A20A1F1F9
:1089C0003005EDB20A2D08D26425604305FB030093
:1089D000081841F2D041401A0AE0A4F13001C9B2AE
:1089E0000A293ABF00FB0340A0F50470A3F1300050
:1089F000012ADFD180B2DFF8301809688842D9D067
:108A0000002030BD10B54FF41852DFF82418DFF8FD
:108A1000240800F081FDDFF82008002100220B4629
:108A20000C461EC010BD10B5002208E0135CA3F177
:108A30006104E4B21A2C3CBF203B1354521C8A42FE
:108A4000F4DB10BD2DE9FF4180460E46DFF8E44718
:108A500004F2004710250B22394601A800F04CFD16
:108A60000B2101A8FFF7DFFF0B22414601A801F00F
:108A700049FA98B907F11C0001783170417871709A
:108A800007F11A0000A902780A7042784A70BDF80E
:108A9000000004EB402000F5007003E020376D1E5D
:108AA000D9D1002004B0BDE8F0812DE9F14FADF53A
:108AB000107D88460025002440F23B1141A8FFF7B5
:108AC000ABF8DFF878674FF400729099304600F009
:108AD00013FD2F46A946232041A900FB071A07E0F2
:108AE000B9F1230F3CBF09F80A0009F10109641C20
:108AF000304601F039FA844206D2A05D0D2802BF4B
:108B0000A11949780A29EBD109F80A50A41C7F1C45
:108B1000092FDFD30027DFF8209706EB87000090AE
:108B2000D0F80042204601F01FFA09EB870A232102
:108B300041AA01FB072B02462146584601F0E2F903
:108B400000281CD10098D0F8000201F00DFA04466C
:108B500004E0202818BF3D2811D1641C584601F0BC
:108B600003FA844278D214F80B00A0F13001C9B2A4
:108B70000A29EED2302803D1062F18BF072F6BD158
:108B80005C440022F9B22046FFF78CFE002863D037
:108B9000F9B22046FFF75EFD4FB9DFF880060069A5
:108BA0000A2190FBF1F20FF2B86141A851E0DFF821
:108BB0009006012F07D140680A2190FBF1F20FF2D5
:108BC000AC6149A829E0022F08D1C0686421B0FB3C
:108BD000F1F20FF2A4610DF5A5703AE0032F07D171
:108BE00000696421B0FBF1F20FF298615BA826E006
:108BF000042F07D180680A2190FBF1F20FF29061F7
:108C000064A826E0052F0AD1DFF8180600680A21BB
:108C1000B0FBF1F20FF284616CA8C01C19E0062FC2
:108C200007D1FBF791FA02460FF27C610DF5EB706C
:108C30000FE0072F05D1027D0FF274617EA8401C62
:108C400007E0082F1AD1DFF8E00502680FF268612B
:108C500087A8FFF706F811E0584601F085F90146AC
:108C6000584600F077FFDAF81450284601F07CF9F6
:108C700002462946584600F03FFC01257F1C092F7B
:108C8000FFF44BAFFE2101A8FEF7C6FF002623200C
:108C900041A900FB061101A801F081F909EB86004A
:108CA000816B01A801F07BF9761C092EEFD301A896
:108CB00001F05AF9DFF87C1501EB481282F81C0428
:108CC000000A82F81D04909801F58061401A00F5B1
:108CD0000070411200EB91508012012100F8091040
:108CE00001A801F041F9024601A9909800F004FCA6
:108CF00028460DF5117DBDE8F08F2DE9F047C2B093
:108D00000020ADF800000FF2BC5700AA0DF10201DF
:108D10003846FFF797FEDFF81C4558B1BDF8001044
:108D2000FFF7C3FEDFF8F814097808436AD000F0B3
:108D30004AF967E00FF2985800AA0DF10201404687
:108D4000FFF780FE010004F21645DFF8F8941BD00F
:108D5000FE2201A800F0D0FB00F063F804F5846067
:108D6000B8E80E000EC0FE2201A904F5006000F074
:108D7000D3FB00206875C5F82090032084F83A04DE
:108D8000FE2084F83C0401E000F04BF804F580601C
:108D90000ECF0EC00FF2587706223946204600F05B
:108DA000BBFB0622394604F5007000F0B5FB002637
:108DB0000027DFF8840400EB8708D8F814A0504699
:108DC00001F0D2F800F032F8D8F8140001F0CCF835
:108DD0008619D8F838A0504601F0C6F800F026F8F9
:108DE000D8F8380001F0C0F886197F1C092FE0D3AD
:108DF000002084F80B04C4F8169402202871AE7188
:108E000000F00AF942F60C0001190022CA760A772E
:108E10004A760251002088600861C86042B0BDE80F
:108E2000F0874FF418512046FEF7F6BE0246514631
:108E3000301900F5C06000F05FBB2DE9F04186B04D
:108E400004460E46DFF8EC73B6F5805F0AD14FF4A6
:108E50000072394601F056F8002872D000F076F81A
:108E600038460EE0B6F5205F0ED107F500754FF4D9
:108E70000072294601F046F8002862D000F066F83A
:108E8000284600F039FB5CE0DFF8AC53B6F5804FC4
:108E900030D107F200464FF40072314601F032F84B
:108EA00000284ED000F052F8304600F025FB01209B
:108EB000687010260FF20C470C22214600A800F023
:108EC0001BFB0B22394600A801F01CF840B9A07E1C
:108ED000688201202874207F40B10120287030E092
:108EE0002034761EE8D1287C0028F6D00020287493
:108EF000288026E0A6F50048B8F5005F21D8F019D3
:108F0000A0F5F4474FF400723946204600F0FAFF0E
:108F100020B100F01BF8384600F0EEFA688A4FEAFC
:108F20005821891C814206D1811E89B23846FFF73B
:108F3000BCFD40B905E0A6F5FC4005EB9020012101
:108F4000417000F040F806B0BDE8F0814FF40072C7
:108F50002146704738B504460D46FFF779FB25B921
:108F60004FF400720FF2883121E0B249B5F5805F0D
:108F700008BF4FF400721AD0B5F5205F04D14FF44A
:108F8000007201F5007112E0B5F5804F04D14FF485
:108F9000007201F580610AE0A5F50040B0F5005FC0
:108FA0000AD84FF4007205F1006101F58C412046AA
:108FB000BDE8384000F0A0BA4FF400712046BDE88B
:108FC000344000F0C7BDF8B500F0D8FD00209A4944
:108FD000425CD2B1002242548402954D281900F01F
:108FE000FEFF94482618002736F8021B3819281867
:108FF00000F0E4FF042803D000F0CAFD0420F2BD15
:10900000BF1CB7F5806FEFD302E0401C1028DFD300
:1090100000F0BEFD0020F2BD70B5864C00F0AEFD44
:109020000025834E06EB852000F0D9FF6D1C092D2D
:10903000F8DB002534F8021B701900F0BFFF04288C
:1090400001D0042070BDAD1CB5F5185FF2DB00F057
:109050009FFD002070BD2DE9F04142F61804754DCA
:109060006619794F327A2AB940023860480278602E
:1090700001203072307A012831D1605978B905F574
:10908000185839684046FFF765FF4022982140464E
:1090900000F0BAFF4FF4E070605140200CE0402235
:1090A0009821B868401900F5185000F0ADFF6059DC
:1090B00040386051B8684030B8604021012001F06C
:1090C0004EF83021012000F0D4FF3868403038607D
:1090D0007868403878605D48816840398160786898
:1090E00038B96051B86038605948032101700020D8
:1090F0003072BDE8F0812DE9F04142F61C044D4D7F
:10910000625940326619534F33792BB940023860A7
:109110004802786001203071307901282FD1002079
:109120004D490AE05B1903F5185310F801C083F8A4
:1091300000C0401C63595B1C635163599342F1D3D7
:10914000DFF81881B8F800003968411839607A688A
:10915000101A7860C00507D100206051A1F5007198
:1091600005F51850FFF769FE38488168B8F8002007
:10917000891A81604FF44051022000F08BFF78681B
:1091800000281EBF32480078042806D10020605114
:10919000012101F04BF900203071BDE8F08110B5DC
:1091A00084B000A8002100220B460EC01F480170A9
:1091B0001A4800F1100144F25062CA6048F6A04219
:1091C0000A6164228A60174A6423136000220A75C8
:1091D00040F6B8324A604FF4FA610161104C012048
:1091E0002070FFF70FFCFFF788FD002020700FF2C2
:1091F000EC0100A8FEF735FD4FF4FA70FFF70CF80C
:10920000FEF7DBF900A90020FCF74BFC4FF47A7065
:10921000FFF702F8FEF7D1F91FBD0000FC040020A3
:10922000B8060020C4060020C00600202505002046
:1092300000C00008F4060020780400200000002090
:109240000C050020188DDD40D0310020C0310020F9
:1092500030310020DC310020D030002032310020BD
:1092600053746254656D703D25640000576B5465FE
:109270006D703D2564000000536C7054696D653D50
:109280002564000049646C54696D653D25640000E7
:1092900054656D705374703D256400004F666656CA
:1092A0006F6C743D2564000054656D703D2564004D
:1092B00048616E643D2564005A65726F505F416479
:1092C0003D256400434F4E464947202054585400E2
:1092D0004C4F474F494E2020424D5000496E697413
:1092E00069616C207375636365737321000000000E
:1092F000EB3C904D53444F53352E30000201080093
:109300000200025000F80C00010001000000000003
:1093100000000000000029A298E46C4E4F204E414E
:109320004D4520202020464154313220202033C991
:109330008ED1BCF07B8ED9B800208EC0FCBD007CE5
:10934000384E247D248BC199E83C01721C83EB3A92
:1093500066A11C7C26663B07268A57FC750680CAD8
:109360000288560280C31073EB33C98A461098F7FF
:10937000661603461C13561E03460E13D18B761138
:10938000608946FC8956FEB82000F7E68B5E0B0329
:10939000C348F7F30146FC114EFE61BF0000E8E64A
:1093A00000723926382D741760B10BBEA17DF3A66B
:1093B0006174324E740983C7203BFB72E6EBDCA07C
:1093C000FB7DB47D8BF0AC9840740C487413B40EE4
:1093D000BB0700CD10EBEFA0FD7DEBE6A0FC7DEB25
:1093E000E1CD16CD19268B551A52B001BB0000E80D
:1093F0003B0072E85B8A5624BE0B7C8BFCC746F0B0
:109400003D7DC746F4297D8CD9894EF2894EF6C63A
:1094100006967DCBEA030000200FB6C8668B46F89F
:109420006603461C668BD066C1EA10EB5E0FB6C8B9
:109430004A4A8A460D32E4F7E20346FC1356FEEB35
:109440004A525006536A016A10918B46189692331D
:10945000D2F7F691F7F64287CAF7761A8AF28AE8C7
:10946000C0CC020ACCB80102807E020E7504B44260
:109470008BF48A5624CD136161720B40750142034F
:109480005E0B497506F8C341BB000060666A00EBDD
:10949000B04E544C44522020202020200D0A52650A
:1094A0006D6F7665206469736B73206F72206F74C3
:1094B000686572206D656469612EFF0D0A446973E9
:1094C0006B206572726F72FF0D0A507265737320A4
:1094D000616E79206B657920746F20726573746199
:1094E00072740D0A00000000000000ACCBD855AA31
:1094F000F8FFFFFFFFFF000062B38B0708D0521E8A
:1095000011F8013B00F8013B00F024808B07F6D1F5
:10951000830740F0208000BF103A07D330B4B1E891
:109520003810103AA0E83810F9D230BC530724BFE5
:10953000B1E80810A0E8081044BF51F8043B40F817
:10954000043BD20724BF31F8022B20F8022B44BF82
:109550000B7803707047083A07D3B1E80810083A4F
:1095600040F8043B40F804CBF7D25307E4E700008F
:109570005148C089704751480088704700B585B090
:109580008DF800008DF801101D22022100A800F0C6
:1095900079F90DE000B585B08DF8000003461D2275
:1095A000012100A800F083F943489DF800100173E1
:1095B000012005B000BD80B500212A20FFF7DEFFA5
:1095C00002210E20FFF7DAFF03212A20FFF7D6FF42
:1095D00000212B20FFF7D2FF01212A20BDE8044003
:1095E000CCE770B51C460023002500F1100696421A
:1095F000A6BFA0F11006B242012301F11006A64257
:10960000A6BFA1F11006B442012300F12006964244
:10961000A6BF20388242012501F12000A042A6BF4A
:10962000A1F120008442012524480580184670BD20
:1096300021480178407802E01F480179407940EAEA
:1096400001200009802903D3C043401C0005000D00
:10965000704730B583B0184C06212046FEF7DCFA7F
:109660000020FFF797FFE8B1207B00071AD5012003
:10967000FFF790FFB0B1207B8DF80000207000A8AC
:10968000417861709DF8021021719DF8031061719D
:109690000179217240796072FFF7CAFF0546FFF732
:1096A000CBFF00E0258A00232A460021208AFFF70D
:1096B00098FFE081258237BD9C310020AE3100202B
:1096C00009490860704709490860704708490860FF
:1096D000704705484AF6AA210160704702484CF6D7
:1096E000CC41016070470000003000400430004071
:1096F00008300040002800E0401EFDD1704780B5D2
:10970000FEF7E0FBC020ADF8000003208DF802005A
:109710001C208DF8030000F001F801BD00A9584895
:1097200000F084B9564A012903D10146104600F0E1
:10973000E2B919B90146104600F0DFB9704780B5AB
:109740000121082000F011F9C020ADF8000014201C
:109750008DF8030003208DF80200FFF7DFFF00F013
:109760000EF800F057F800F058F800F051F800211A
:1097700000F051F800F04CF800F001F801BD0021B4
:109780004020CFE780B5FFF7FAFF002100F043F853
:1097900000F03EF800F041F800F03AF800F03AF836
:1097A00000F036F8FFF7EBFF0220BDE80240A1E72A
:1097B00038B50446082508E000F02DF800F028F838
:1097C00000F02BF800F024F864002846451EC0B2D3
:1097D00030B1FFF7D4FF20064CBF01210021EBE799
:1097E000FFF7CDFF00F016F8FF2400F011F800F0AD
:1097F00043F848B900F011F800F00AF8FFF7BFFF8E
:1098000000F006F8012032BD641EEED1002032BD0A
:1098100002206FE70121802084E70121402081E7B9
:1098200070B5044608250026FFF7F4FF0DE0FFF7AA
:10983000A6FFFFF7EDFFFFF7F0FFFFF7E9FF760068
:1098400000F01AF808B146F001062846451EC0B2DD
:109850000028ECD1FFF793FF002C0CBF0121002161
:10986000FFF7D9FFFFF7D4FFFFF7D7FFFFF7D0FFD0
:10987000FFF785FFF0B270BD8021014800F034B9D8
:10988000000C014070B504460D461646FFF757FF21
:109890007000C0B201E014F8010BFFF789FF284601
:1098A000451EC0B20028F6D1BDE870406AE7F8B5A1
:1098B00004460D4616461F46FFF741FF7600F0B2FC
:1098C000FFF776FF3846FFF773FFFFF738FF46F0E4
:1098D0000100C0B2FFF76CFF03E0FFF7A1FF04F83F
:1098E000010B2846451E28B1EDB2002D0CBF00200B
:1098F0000120F2E7BDE8F14044E700003348016889
:1099000041F0010101604168314A11404160016844
:10991000304A11400160016821F4802101604168F2
:1099200021F4FE0141604FF41F01816070472A4914
:10993000086070472A490860704728490A689208F9
:1099400050EA8200086070472448006800F00C006C
:109950007047244908607047234A0029116814BFE2
:10996000084321EA000010607047204A002911686E
:1099700014BF084321EA0000106070471C4A002908
:10998000116814BF084321EA000010607047194AAB
:109990000029116814BF084321EA000010607047D5
:1099A00000214209094B012A08BF1A6803D0022A84
:1099B0000CBF1A6A5A6A012300F01F0003FA00F074
:1099C000024218BF01210846704700000010024003
:1099D0000000FFF8FFFFF6FE0000424204100240C4
:1099E00060004242D8004242141002401810024067
:1099F0001C1002400C10024000B500BF1300964638
:109A00009446103928BFA0E80C50FAD85FEA417C90
:109A100028BF0CC048BF40F8042BC90728BF20F856
:109A2000022B48BF00F8012B00BD00002DE9F041DA
:109A30000022CC7804F00F03E40644BF8C78234363
:109A40000C8801250F26E7B217B3D0F800C005FA3D
:109A500002F7BE460EEA0408F04514D14FEA820E22
:109A600006FA0EF82CEA080C03FA0EFE4EEA0C0C6D
:109A700091F803E0BEF1280F08BF476103D0BEF1A3
:109A8000480F08BF0761521C082AE0D3C0F800C085
:109A9000B4F5807F26D3D0F804C0002202F1080775
:109AA00005FA07F7BE460EEA0408F04515D14FEA5D
:109AB000820E06FA0EF82CEA080C03FA0EFE4EEAA5
:109AC0000C0C91F803E0BEF1280F08BF476191F834
:109AD00003E0BEF1480F08BF0761521C082ADDD31E
